:0A000000222B000000000000CE2BB0
:0C000A00000000000000000000000800E2
:100016002430FC00B530FD00FD0B0F28FC0B0F282B
:06002600000000000800CC
:0A002C005330FD00FD0B18280800FA
:1000360083160313BB1B22288312861324288312DC
:10004600861783163B1B2A28831206132C28831235
:1000560006178316BB1A3228831286123428831297
:10006600861683163B1A3A28831206123C288312F8
:1000760006166F1840280615412806118615052014
:1000860086118316BB194A28831286134C288312BD
:10009600861783163B195228831206135428831297
:1000A60006178316BB185A28831286125C288312F9
:1000B600861683163B18622883120612642883125A
:1000C60006166F1868280615692806118615052074
:0E00D60086116F1C70280B2071281620080060
:0E00E400831203136C088A006B088200080068
:1000F20083120313FB01FA01F901F801B401730D34
:10010200F80D7408F8027508031C750FF9027608D9
:10011200031C760FFA027708031C770FFB0200011B
:10012200031C0130B402F30D0730FC00730DF80D0F
:10013200F90DFA0DFB0DB40D7408731CB228F80208
:100142007508031C750FF9027608031C760FFA0274
:100152007708031C770FFB020001031C0130B40275
:10016200C328F80775080318750FF90776080318EE
:10017200760FFA0777080318770FFB0700010318B9
:100182000130B407F30DFC0B9728720DF80DF90D31
:10019200FA0DFB0DB40D7408731CE128F802750802
:1001A200031C750FF9027608031C760FFA02770812
:1001B200031C770FFB020001031C0130B402F2287A
:1001C200F80775080318750FF90776080318760FF4
:1001D200FA0777080318770FFB07000103180130AD
:1001E200B407F20D0730FC00720DF80DF90DFA0D8F
:1001F200FB0DB40D7408721C1029F8027508031C5B
:10020200750FF9027608031C760FFA027708031CB1
:10021200770FFB020001031C0130B4022129F80709
:1002220075080318750FF90776080318760FFA0791
:1002320077080318770FFB07000103180130B40792
:10024200F20DFC0BF528710DF80DF90DFA0DFB0DF1
:10025200B40D7408721C3F29F8027508031C750F4F
:10026200F9027608031C760FFA027708031C770F4F
:10027200FB020001031C0130B4025029F807750883
:100282000318750FF90776080318760FFA0777082F
:100292000318770FFB07000103180130B407F10DB3
:1002A2000730FC00710DF80DF90DFA0DFB0DB40DC0
:1002B2007408711C6E29F8027508031C750FF90287
:1002C2007608031C760FFA027708031C770FFB02ED
:1002D2000001031C0130B4027F29F80775080318D6
:1002E200750FF90776080318760FFA0777080318CF
:1002F200770FFB07000103180130B407F10DFC0B67
:100302005329700DF80DF90DFA0DFB0DB40D74089B
:10031200711C9D29F8027508031C750FF9027608F5
:10032200031C760FFA027708031C770FFB02000109
:10033200031C0130B402AE29F80775080318750FC3
:10034200F90776080318760FFA0777080318770F6C
:10035200FB07000103180130B407F00D0730FC0061
:10036200700DF80DF90DFA0DFB0DB40D7408701C2B
:10037200CC29F8027508031C750FF9027608031CD4
:10038200760FFA027708031C770FFB020001031CA9
:100392000130B402DD29F80775080318750FF90753
:1003A20076080318760FFA0777080318770FFB070A
:1003B200000103180130B407F00DFC0BB1297018CD
:1003C200F0297408F80775080318750FF9077608FD
:1003D2000318760FFA0777080318770FFB07080050
:1003E200831203136F1083163A08BB001B206F148D
:0203F200080001
:1003F40072208A110A128000840AEB0A0319EC0A9B
:08040400F003031DFA290800B2
:10040C0083120313ED01EE0180306E06F000803094
:10041C007002031D132A0A306D0203181E2A6D0880
:10042C00A43E840020308000ED0A0319EE0A0A2A4B
:10043C008316AE010030F0002306031D2F2A70082E
:10044C002206031D2F2A70082106031D2F2A2008BF
:10045C00003A031D342A3030AD00902A8312ED018E
:10046C00EE0183162308003C031D462A2208003C9B
:10047C00031D462A2108003C031D462A2008003C87
:10048C000318902A83126D08093CF0006E08031CB7
:10049C00013EF101F1027008A43E8316B6000A3049
:1004AC00F400F501F601F7012008F0002108F10035
:1004BC002208F2002308F30079207808F00079086C
:1004CC00F1007A08F2007B08F30030307007F4007A
:1004DC00831636088400740880008312ED0A031911
:1004EC00EE0A0A30F400F501F601F7018316200834
:1004FC00F0002108F1002208F2002308F300792013
:10050C0070088316A0007108A1007208A20073087D
:06051C00A300372A0800CD
:10052200A32A803083160313B600B62AC030B60061
:10053200B62A9430B600B62AD430B600B62A803035
:10054200B600B62A831603133608013A0319922A13
:100552003608023A0319972A3608033A03199A2AE7
:100562003608043A03199D2AA02A3703F0003608F8
:10057200F0077008B6007008BB001B206F108316CE
:10058200B90139083807840000080319D12A39084B
:10059200380784000008BA00F1218316B90AC22A7A
:0605A20083126F14080033
:1005A800831603138612061206108610061186118A
:1005B80083128611061186130613861206120B2063
:1005C8000B200B20861606168615052086110B2093
:1005D8008615052086110B208615052086110B200F
:1005E80006128615052086110B2086150520861112
:1005F800861286178615052086110B208613061687
:1006080086150520861106128615052086110B20F1
:1006180086150520861106168615052086110B20DD
:1006280006128615052086118617061786160616E1
:0C0638008615052086110B206F140800A9
:100644005A240730831203139F00F9308316920053
:1006540083129001393092009830831681008312FE
:10066400121583168601D4220C308316BB001B207E
:1006740001308316BB001B208316B101B201233065
:100684003202031D472B2830310203184D2BB10AC7
:100694000319B20A412B06140130B6000130B70029
:1006A4004930B800912202308316B6000130B700F9
:1006B4005A30B80091223330FB00BB30FC00DF30ED
:1006C400FD00FD0B632BFC0B632BFB0B632B00006A
:1006D400000002308316B6000130B7002430B800A1
:1006E40091223330FB00BB30FC00DF30FD00FD0BFA
:1006F400792BFC0B792BFB0B792B000000000230CB
:100704008316B6000130B7003530B80091220230AC
:100714008316B6000D30B7004430B80091220B1296
:1007240083168C100B178B178316B101B201A0012D
:10073400A101A201A301AF01B001831291018C10A8
:100744008B100B1683168C1402303002031DAC2B55
:1007540071302F020318AF2BA62B0B128C10B10192
:10076400B20107303202031DB92BD0303102031815
:10077400BF2BB10A0319B20AB32B06220230B6000A
:0E0784000430B700A430B8009122962BC82B89
:10079C00FF00030E83018316B5000A08B3008A011B
:1007AC0070088312A3007108A2007208A1007308DC
:1007BC00A0008B1CFB2B83162008F0002108F100F5
:1007CC002208F2002308F300F00A0319F10A0319B6
:1007DC00F20A0319F30A7008A0007108A10072084C
:1007EC00A2007308A3008B10012C8316AF0A031907
:1007FC00B00A83128C1083122308F0002208F10037
:10080C002108F2002008F300831633088A00350E05
:08081C008300FF0E7F0E0900AE
:1008B40024308400473083120313F0001230EB001D
:0808C4000430EC00FA210800E9
:1008240020342034203420342034763430342E34B0
:1008340030342E34313420342034203420342034E5
:0208440000347E
:1008460046343D34203420342034203420342034BF
:0E085600203420342034203420342034003468
:0A0864003034203448347A34003474
:10086E004634723465347134423446342034423462
:10087E00593420347B34333430346C346F347D341B
:02088E00003434
:100890004D3461346E34633475346C34693463348C
:1008A00061346E34693420345434653461346D34C9
:0208B000003412
:02400E006A2125
:00000001FF
