:020000040000FA
:10000000A0298207DD348434E934E534B43475340E
:100010007D34C434FD34F534FC343D342934AD34FE
:10002000793478345D34BC3408340034FF34F83427
:1000300028342D34F4340D3439347534E93418341B
:1000400085343934193482070834043401340234D5
:100050000034820754340B34E43400343B349A3493
:10006000CA3400340534F534E134003400349834B3
:100070009634803400340F34423440340034013438
:100080008634A03400340034273410340034003473
:100090000334E83400340034003464340034003471
:1000A00000340A3400340034003401343C08820740
:1000B0007F2A8A2A922A9A2AA22AAD2AAF2AB12A0C
:1000C000B32A7F2A3C088207BE2ABF2ACD2ADA2A11
:1000D000DF2AE22AE22AE22AE22ABE2A6400831602
:1000E000810083120034640081018316273081006F
:1000F00064002F30810083120034C9007F39012051
:10010000C91B0238C900C9090034CA007F3901205F
:10011000CA1B0238CA00CA090034CB007F3901204B
:10012000CB1B0238CB00CB090034CC007F39012037
:10013000CC1B0238CC00CC090034CD007F39012023
:10014000CD1B0238CD00CD0900340030C900CA00F3
:10015000CB00CC00CD0000348B1383169B008312A0
:10016000000883169A001C158B1355309D00AA3089
:100170009D009C149C18BA281C1183128B17003404
:10018000AF008B1383169B001C141A0883128B1765
:1001900080002F080800C020013E840AC020013ED4
:1001A000840AC020013E840AC028B001B101B20116
:1001B000B301AC018101000000004E082320AF0014
:1001C00049304E078400000886002F088500CF0ABA
:1001D0004F1BCE0A4F134E08043C031CCE010108EE
:1001E000B3000130AC1F0301B31B0301B2070318B6
:1001F000B10AB11B19293308AC00AE080319AD03CD
:10020000AE0300000C30FF3E031D03290000000078
:100210000000000000002D082E04031DDD28010849
:10022000B3000130AC1F0301B31B0301B207031875
:10023000B10A00340008840AB0000008840AB10042
:100240000008840AB2000008840AB300A701403005
:10025000840027082920A800A70A27082920A90028
:10026000A70A27082920AA00A70A27082920AB00E7
:10027000A70A80012B08B3022A0803184429B202F6
:1002800003190310B2034529B202290803184D29A6
:10029000B10203190310B1034E29B1022808031853
:1002A0005629B00203190310B0035729B002031CEA
:1002B0005B29800A3A292B08B3072A08031C652901
:1002C000B207B20A031903146629B2072908031CEE
:1002D0006E29B107B10A031903146F29B107280861
:1002E000031C7729B007B00A031903147829B00753
:1002F000840A20302702031D292940308400800809
:10030000031D9129840A8008031D9129840A80080D
:10031000031D8F29840A8008031D8F29840AC417AE
:100320009229C11700087D20840A00088520840ACC
:1003300000088D20840A00089520840A00089D2862
:10034000073083169F0083121030831685008312B6
:10035000850100308316860083128601CE01CF010D
:100360001330C80014307D201430852014308D20C7
:100370001430952014309D2027306E208630AD003B
:10038000A030AE00D520383084000030CB20A5202E
:100390008316103085000030860083126400203000
:1003A0008316810083121A30AD000A30AE0025306A
:1003B0006E20D520C330AD005030AE00D10A3208D7
:1003C000C039031D152AB21A112A321A0D2AB21980
:1003D000092A3219062AB218062A3218062A3308C0
:1003E000363C031C062A3308053C031CFF29F82968
:1003F00073200D30AD004030AE000030192A73205C
:100400008630AD00A030AE000130192A73200230D2
:10041000192A20306E200330192A21306E20043032
:10042000192A22306E200530192A23306E2006301A
:10043000192AD000D520D0080319252A0310B30D9E
:10044000B20DB10DB00DD00B1E2A300831043204AC
:1004500033040319642AB01B6F2A3008B400310832
:10046000B5003208B6003308B7003B08B3073A08B6
:10047000031C3F2AB207B20A03190314402AB20729
:100480003908031C482AB107B10A03190314492A81
:10049000B1073808031C512AB007B00A0319031426
:1004A000522AB007B01F602AB009B109B209B309D6
:1004B000B30F602AB20F602AB10F602AB00F602A12
:1004C0002621851EE42AC82913307D20133085207B
:1004D00013308D200030952013309D20612A133079
:1004E0007D201330852013308D200E309520133061
:1004F0009D20C8294E30AD002030AE00D5281830E0
:100500007D201930852012308D201A30952013302F
:100510009D207A2A0A307D200D3085200D308D20D7
:100520001330862A1B307D20193085200B308D201A
:100530001330862A1C307D200E30852016308D2009
:100540001730862A1A307D200A3085200B308D2006
:10055000203095200E309D207A2A0430B52A0830AC
:10056000B52A0C30B52A1030B52AAF0034308400DB
:100570002F08CB20343084001A217A2AC329343042
:1005800084000030AC20840A0130AC20840A0230A0
:10059000AC20840A0330AC20C329B409B509B609DC
:1005A000B709B70FD92AB60FD92AB50FD92AB40F70
:1005B000D92ABF2AB401B501B601B701BF2A053057
:1005C000BC00F22A0130E02ABC0115307D20163033
:1005D000852017308D201030952013309D207A22F1
:1005E000851EEF2AD10A5620851AF22A0A30BD004C
:1005F000851A032B7A22BD0BF82AA5207A225620D1
:10060000851EFD2A62283C08043C03190B2B031CA1
:100610000D2BBC0AF22ABC01F22A3C08093C031942
:10062000152B031C182BBC0AF22A0530BC00F22A39
:04063000BC01F22AED
:084000000100020003000400AE
:02400E00023F6F
:10420000000000000000000000000600F10058005F
:10421000000040000000000000004300A600D300A2
:084220000000A3004400E000CF
:00000001FF
