:020000040000FA
:100000006400B8208501851486019A20AE20061B65
:100010001628C1200B1D0F2800304A200628900109
:1000200028088F0029088E00DA2006282D304A2063
:10003000C1205A20C1202808A4002908A500851045
:100040005A20C1202808A6002908A70085145A2094
:10005000AE20C120280803192F280B1D322800309C
:100060004A202828B0019B219921861F3F288321FF
:10007000B008031D472821304A20E3202828872183
:10008000B008031D472827304A20182128280030AF
:100090004A202828890083160814831208080319A7
:1000A00008006620890A4B28FD30A1006630A200B6
:1000B0005F285B205B207E30A1002030A200A20FD1
:1000C0005F28A10F5F2800340F39303EAE03031DB7
:1000D0006D28AF00061EB5202F088515A300230E3E
:1000E000722023080F3986000515000005114230E3
:1000F000A100A10B7928003418309F00AA01AB01A0
:10010000AC01AD012A3084000430A00033308007F8
:100110008019F039801B0F398002840AA00B8628D1
:100120008E0D8F0D900DAD0DAC0DAB0DAA0D9F0B6F
:10013000822808005B2085110511033072205B20A6
:100140000330722003307220023072200C30B6204F
:100150002830B6200630B6200130B1280930AE0074
:100160000230B320542885116E28C030B320772880
:1001700083163730810010308500F03086008312FE
:1001800008000B1181010514A801A9018316113083
:1001900085005B201030850083120108A8008316BB
:1001A0000116000001128312A90301082806031991
:1001B000CF2808007C2049214B214D214F2151217E
:1001C000532155215729310866202A080F39031970
:1001D000EF2864204D214F214721512102292B0E68
:1001E0000F390319F92864204F2147215121532148
:1001F00002292B080F3903190429642047215121B2
:100200005321552111304A282C0E0F39031D112975
:10021000203066202C080F39031D1229203066205B
:1002200013295121532155214721572115304A289F
:10023000310866202A080F390319242964204D212A
:1002400047214F2151212D292B0E0F3903192F2919
:10025000642047214F215121532119304A282B086E
:100260000F39031939296420512153214721552180
:1002700045292C0E0F39031D4029203066204129C5
:10028000512153214721552157211D304A282E3015
:1002900066282A0E64282A0864282B0E64282B0856
:1002A00064282C0E64282C0864282D0E64282D0840
:1002B00064284D235E29D5225E298522B0041C08BE
:1002C00095001D0896001E089700080015089C0060
:1002D00016089D0017089E000F089500100896004C
:1002E0001108970008000F089506150695068F005F
:1002F000100896061606960690001108970617062F
:100300009706910008005B21AA215D218F295D21BC
:10031000A3215D21B82166215D2173215B21901FFE
:1003200093292D3094292030B10090132922B00454
:100330007C28BC219C29BA21B8215B2166215D2142
:10034000B221732159296621AB30910038309000D9
:100350004D30B02966218C3091001C309000403027
:100360008F0008006621910190018F010130C5299D
:100370002430BD292630BD29283084006621910112
:10038000900100088F00840A00088E00E821B00464
:1003900008009B011008031DD3290F0890000319C2
:1003A000E3298F019B151B089102031D031C412BA0
:1003B0000310901BE0298F0D900D910BD929412B33
:1003C000921F9013003490018F018E01910100342F
:1003D000963091009201901FF6298E098F0990099D
:1003E0008E0A03198F0A0319900A92179B011008AD
:1003F000031D0B2A0F0890000E088F008E019B151D
:100400001008031D0B2A0F0890008F019B111B166B
:1004100010080319E3291B089102031D031C412B3B
:100420000310901B192A8E0D8F0D900D910B112A20
:10043000412B131B0F1CE0298E1FE0298F0A031983
:10044000900A031DE029900C8F0C910A0319CB2A06
:10045000E0298E011108031900341008920090174A
:1004600096309102911F792A9109910A0830110260
:10047000031C552A91008E0D0F088E0010088F0066
:10048000900108301102031C552A91008E0D0F08AF
:100490008E008F0108301102031C552A91008E0D29
:1004A0008E011108031D03105E2A110803195E2A2C
:1004B0000310900C8F0C8E0C910B582A131B0E1CE2
:1004C0006A2A031C6A2A8E0A03198F0A0319900AE2
:1004D000901B792A921F003490098F098E098E0A89
:1004E00003198F0A0319900A003490018F018E01BD
:1004F00000341314931FFF349001921FFF309000BB
:100500008F008E00920D900CFF341108031D170808
:100510000319E329100816069200170891077E3088
:10052000031C962A91020318CB2A992A9102031CD4
:10053000412B10088E000F088D008E1796170310A0
:1005400090018F0110309B000D1CAC2A15088F07FD
:1005500016080318160F9007900C8F0C8E0C8D0C3C
:1005600003109B0BA42A901BB92A8E0D8F0D900DA2
:100570009103131B0F1CC82A8E1FC82A8F0A031948
:10058000900A031DC82A900C8F0C910A0319CB2ADC
:10059000921F901300349314931FFF34FF30910087
:1005A00090008F00920D900CFF34170803194B2B0D
:1005B00011080319E32910081606920090179617E0
:1005C0009B0110088E000F088D0015088D0216087B
:1005D000031C160F8E028E018D01031CF52A0310D9
:1005E000900C8F0C8E0C01309B0017089102031C9D
:1005F000FF2A7E301B0791070318CB2A042B7E307D
:100600001B079107031C412B10309A008D0D8E0D96
:100610008F0D900D9B0D15088F021608031C160FE9
:100620009002160D9B041B1C172B0D141E2B150876
:100630008F0716080318160A90070D109A0B062B41
:10064000131B0D1C3A2B03108F0D900D9B0D1508DD
:100650008F021608031C160F9002160D1B04013999
:100660008D0703188E0A031D3A2B8E0C8D0C910AF0
:100670000319CB2A921F8E130E0890000D088F00CD
:1006800000341315931FFF340130910090018F0146
:10069000920D900CFF349315FF34803096061008AD
:1006A00016069B008E01940111081702031C6A2B89
:1006B00017088C00110897000C08910016088C0090
:1006C000100896000C08900015088C000F08950083
:1006D0000C088F00170803190034100892009017B7
:1006E00096171708110297000319902B083017026C
:1006F000031C872B97001508940016089500960197
:1007000008301702031C872B1208900000341708CA
:100710000319902B0310960C950C940C970B8A2BB5
:100720009B1F9A2B940995099609940A0319950A17
:100730000319960A14088E0715080318150F8F075A
:1007400016080318160F90079B1BAE2B031C192AC3
:10075000900C8F0C8E0C910F192ACB2A0318F629B6
:100760008E098F0990098E0A03198F0A0319900ABE
:0607700080309206C92949
:02400E00F23F7F
:104200002000200020004F00760065007200200092
:10421000520061006E006700650020002000200051
:10422000000020006E0046000000200070004600E4
:10423000000020006D0048000000200075004800CC
:1042400000002000430020003D002000000020006E
:104250004C0020003D002000000020002000200035
:10426000430061006C00690062007200610074002C
:0C42700069006E006700200020000000C4
:00000001FF
