:020000040000FA
:100000006400B9208501851486019B20AF20061B62
:100010001628C5200B1D0F2800304A200628A401F1
:100020003C08A3003D08A200DE2006282D304A200F
:10003000C5205B20C5203C08B8003D08B9008510EC
:100040005B20C5203C08BA003D08BB0085145B203E
:10005000AF20C5203C0803192F280B1D3228003083
:100060004A202828C4019F219D21861F3F288721DF
:10007000C408031D472821304A20E72028288B2167
:10008000C408031D472827304A201C212828003097
:100090004A20282883169B001C141A08831203196F
:1000A0000800672083169B0A4C28FD30B500663097
:1000B000B60060285C205C207E30B5002030B600A1
:1000C000B60F6028B50F602800340F39303EC203E8
:1000D000031D6E28C300061EB62043088515B70011
:1000E000370E732037080F398600051500000511FB
:1000F0004230B500B50B7A2800341830B300BE0189
:10010000BF01C001C1013E3084000430B40033306F
:1001100080078019F039801B0F398002840AB40BE4
:100120008728A20DA30DA40DC10DC00DBF0DBE0DDE
:10013000B30B832808005C20851105110330732060
:100140005C200330732003307320023073200C30A6
:10015000B7202830B7200630B7200130B228093048
:10016000C2000230B420552885116F28C030B42059
:1001700078281F149F141F15831637308100103004
:100180008500F0308600831208000B1181010514F0
:10019000BC01BD018316113085005C201030850044
:1001A00083120108BC00831601160000011283129D
:1001B000BD0301083C060319D32808007D204D210A
:1001C0004F21512153215521572159215B294508A0
:1001D00067203E080F390319F32865205121532168
:1001E0004B21552106293F0E0F390319FD286520A3
:1001F00053214B215521572106293F080F39031957
:10020000082965204B2155215721592111304A28B1
:10021000400E0F39031D15292030672040080F3983
:10022000031D1629203067201729552157215921F0
:100230004B215B2115304A28450867203E080F39BD
:1002400003192829652051214B215321552131299A
:100250003F0E0F390319332965204B2153215521B6
:10026000572119304A283F080F3903193D296520C5
:10027000552157214B2159214929400E0F39031D82
:100280004429203067204529552157214B215921E8
:100290005B211D304A282E3067283E0E65283E0817
:1002A00065283F0E65283F086528400E65284008F0
:1002B0006528410E65284108652851236229D92205
:1002C00062298922C4043008A9003108AA00320832
:1002D000AB0008002908B0002A08B1002B08B200C2
:1002E0002308A9002408AA002508AB000800230859
:1002F000A9062906A906A3002408AA062A06AA0612
:10030000A4002508AB062B06AB06A50008005F215C
:10031000AE21612193296121A7216121BC216A219C
:10032000612177215F21A41F97292D309829203042
:10033000C500A4132D22C4047D28C021A029BE21FC
:10034000BC215F216A216121B62177215D296A21C3
:10035000AB30A5003830A4004D30B4296A218C3070
:10036000A5001C30A4004030A30008006A21A501AC
:10037000A401A3010130C9293830C1293A30C1296B
:100380003C3084006A21A501A4010008A300840A6E
:100390000008A200EC21C4040800AF012408031DDA
:1003A000D7292308A4000319E729A301AF152F08B3
:1003B000A502031D031C452B0310A41BE429A30D58
:1003C000A40DA50BDD29452BA61FA4130034A40101
:1003D000A301A201A50100349630A500A601A41F27
:1003E000FA29A209A309A409A20A0319A30A031955
:1003F000A40AA617AF012408031D0F2A2308A4008E
:100400002208A300A201AF152408031D0F2A230808
:10041000A400A301AF112F1624080319E7292F0800
:10042000A502031D031C452B0310A41B1D2AA20DAE
:10043000A30DA40DA50B152A452B271B231CE4296E
:10044000A21FE429A30A0319A40A031DE429A40C8A
:10045000A30CA50A0319CF2AE429A2012508031930
:1004600000342408A600A4179630A502A51F7D2AF3
:10047000A509A50A08302502031C592AA500A20DCA
:100480002308A2002408A300A40108302502031CAD
:10049000592AA500A20D2308A200A30108302502B5
:1004A000031C592AA500A20DA2012508031D031053
:1004B000622A25080319622A0310A40CA30CA20CBB
:1004C000A50B5C2A271B221C6E2A031C6E2AA20A7B
:1004D0000319A30A0319A40AA41B7D2AA61F00342A
:1004E000A409A309A209A20A0319A30A0319A40AC9
:1004F0000034A401A301A20100342714A71FFF3474
:10050000A401A61FFF30A400A300A200A60DA40C06
:10051000FF342508031D2B080319E72924082A06A0
:10052000A6002B08A5077E30031C9A2AA5020318F3
:10053000CF2A9D2AA502031C452B2408A2002308CC
:10054000A100A217AA170310A401A3011030AF0045
:10055000211CB02A2908A3072A0803182A0FA40778
:10056000A40CA30CA20CA10C0310AF0BA82AA41B73
:10057000BD2AA20DA30DA40DA503271B231CCC2A65
:10058000A21FCC2AA30A0319A40A031DCC2AA40C77
:10059000A30CA50A0319CF2AA61FA4130034A7147D
:1005A000A71FFF34FF30A500A400A300A60DA40CD4
:1005B000FF342B0803194F2B25080319E7292408BA
:1005C0002A06A600A417AA17AF012408A200230830
:1005D000A1002908A1022A08031C2A0FA202A201D5
:1005E000A101031CF92A0310A40CA30CA20C0130D6
:1005F000AF002B08A502031C032B7E302F07A50795
:100600000318CF2A082B7E302F07A507031C452B84
:100610001030AE00A10DA20DA30DA40DAF0D290841
:10062000A3022A08031C2A0FA4022A0DAF042F1CC0
:100630001B2B2114222B2908A3072A0803182A0A96
:10064000A4072110AE0B0A2B271B211C3E2B0310E5
:10065000A30DA40DAF0D2908A3022A08031C2A0F1D
:10066000A4022A0D2F040139A1070318A20A031DB1
:100670003E2BA20CA10CA50A0319CF2AA61FA21378
:100680002208A4002108A30000342715A71FFF3467
:100690000130A500A401A301A60DA40CFF34A715E9
:1006A000FF348030AA0624082A06AF00A201A80160
:1006B00025082B02031C6E2B2B08A0002508AB007D
:1006C0002008A5002A08A0002408AA002008A400E9
:1006D0002908A0002308A9002008A3002B0803195B
:1006E00000342408A600A417AA172B082502AB0083
:1006F0000319942B08302B02031C8B2BAB00290809
:10070000A8002A08A900AA0108302B02031C8B2B81
:100710002608A40000342B080319942B0310AA0CFC
:10072000A90CA80CAB0B8E2BAF1F9E2BA809A909F7
:10073000AA09A80A0319A90A0319AA0A2808A207DC
:1007400029080318290FA3072A0803182A0FA4074A
:10075000AF1BB22B031C1D2AA40CA30CA20CA50FCB
:100760001D2ACF2A0318FA29A209A309A409A20A5B
:0E0770000319A30A0319A40A8030A606CD2996
:02400E00623F0F
:104200002000200020004F00760065007200200092
:10421000520061006E006700650020002000200051
:10422000000020006E0046000000200070004600E4
:10423000000020006D0048000000200075004800CC
:1042400000002000430020003D002000000020006E
:104250004C0020003D002000000020002000200035
:10426000430061006C00690062007200610074002C
:0C42700069006E006700200020000000C4
:00000001FF
