:020000040000FA
:020000006D2869
:080008006C2882070834003463
:1000100098349634803486348634073400340F3470
:100020004234403487348734063400340134863413
:10003000A034C034C03405340034003427341034C4
:10004000C234C1340434003400340334E834C334DB
:10005000C33403340034003400346434C434C4344E
:1000600002340034003400340A34C634C534013458
:100070000034003400340134C734C734FF348207FD
:100080000134563446344F342B3449344634023428
:10009000493446342D34563446344F3403345634C0
:1000A00046344F342D3449344634FF34820701340A
:1000B0003A3431343034203402343A343334323444
:1000C000203403343A3436343434203404343A346B
:1000D000313432343834FF34090007309F00850151
:1000E00086018316FF3085000030860027308100AE
:1000F00083127D23C42318238101CC010B11051920
:100100008328450B8E288316FF3085008312C42375
:1001100085118316F7308500831298288316FF30E7
:1001200085008312CB2385118316F7308500831257
:10013000DD20F1200221051C9F28B8237C28C42340
:10014000051C9F280830051D0730D0005223502180
:100150005C23051CB328851CAE28A928C423851C54
:10016000AE286621A728C423051CB328D00BA728D6
:1001700057235E21051CC728851CBF28BA28C42325
:10018000851CBF28C40BC6280330C400B928C4236B
:10019000051CC7286221051CD828851CD028CB281F
:1001A000C423851CD028C50BD7280430C500C72818
:1001B000C423051CD8288E237C280108CD000B1DE4
:1001C000E328CC0A0B11CF01CF0385118515010857
:1001D0004D020319EC28EE28CF0AE5284F09CE007E
:1001E00008000519080003304502031DFA280130F4
:1001F000A100002904304502031D01290230A1009D
:100200003D2208004408C40B1329C400A2014C0875
:10021000A3004D08A4004E08A5002230C7004030BE
:10022000C600F1214329C40B3029C400A6014C08A3
:10023000A7004D08A8004E08A9004030C600223093
:10024000C7000430A10044222230C7002630C60077
:1002500013222A0B4329A201A301A401A5014329CA
:10026000C400A2014C08A3004D08A4004E08A5003C
:100270002230C7004030C60013222A0B4329A201B6
:10028000A301A401A5012230C6003C30C700043000
:10029000A10044225122D3016D22D4223923080027
:1002A0004030C6003C30C7000430A1004422512237
:1002B0000130D3006D22E12239230800A621EE226D
:1002C00039230800CE210323392308004030C6001B
:1002D0003C30C7000430A100442251225008083CA1
:1002E000343E8400800A0A30000203198001B522DE
:1002F0004030C7003C30C6000430A1004422080052
:100300000301C9000520CB00FF304B020319A529CA
:100310004B08480203198F294908073E81294908DB
:10032000013E0520A6004908023E0520A700490815
:10033000033E0520A8004908043E0520A9004908FD
:10034000053E051D013E0520AA0008000301C90065
:100350003F20CB00FF304B020319CD294B0844024C
:100360000319B5294908073EA7294908013E3F203E
:10037000B6004908023E3F20B7004908033E3F202F
:10038000B8004908043E3F20B9004908053E3F2017
:10039000BA004908063E3F20BB0008000301C9001F
:1003A0005620CB00FF304B020319F0294B084502C1
:1003B0000319DD294908053ECF294908013E562089
:1003C000B6004908023E5620B7004908033E5620B1
:1003D000B8004908043E5620B9002030BA00BB00DE
:1003E0000800AA010430A1000330C6070330C70784
:1003F000470884002A088007AA01031C012A01304B
:10040000AA00460884000008C9004708840049087B
:100410008007031C0D2A0130AA00A10B102A080036
:10042000C603C703F829AA010430A1000330C60798
:100430000330C707470884002A088002AA0103186E
:10044000232A0130AA00460884000008C900470892
:1004500084004908800203182F2A0130AA00A10B4A
:10046000322A0800C603C7031A2AAB011322AB0ABB
:100470002A0B362AF121AB0308000310CE0DCD0D57
:10048000CC0DA10B3D2A0800460884000008C900D5
:100490004708840049088000C60AC70AA10B442AFD
:1004A00008003C08A2003D08A3003E08A4003F0845
:1004B000A5000830C800343084002230C700263040
:1004C000C6000408CA00802135224A0884002B088F
:1004D0008000840AC80B612A0800051D7D2A34307B
:1004E000C6003230C7000330A10044223730C600B6
:1004F0003630C7000330A1008A2A3430C6003230BB
:10050000C7000430A10044223830C6003730C7008D
:100510000330A10044228D2208000A30A1003230AD
:1005200084000730051D0630210203199D2A03307F
:10053000051D02302102031DA22A2030D308031D0D
:100540002E30AF2A00080319A62AAD2AD308031DAE
:10055000AB2A203EAF2A303EAF2AD30A303E80007D
:10056000A10BB32A0800840A912ABC01BD01BE0177
:10057000BF010830C800343084003C30C70026304A
:10058000C6000408CA0080214A0884000008D1007F
:10059000D1080319CE2AF121D103C82A4A088400C0
:1005A000840AC80BC12A08004630AC007230AD0086
:1005B0006530AE007130AF002E30B0003A30B1007F
:1005C00008004930AC004630AD007330AE006530F5
:1005D000AF007430B0003A30B10008004D30AC00CC
:1005E0006F30AD006430AE006530AF002030B00039
:1005F0007330B1006530B2007430B3003A30B400EB
:100600002030B50008005030AC007230AD006530CD
:10061000AE007330AF006330B0006130B1006C30B9
:10062000B2006530B3007230B4002030B50008006D
:10063000233086008612C423233086008612C4230A
:10064000233086008612C423223086008612C423FB
:100650002830A0006323C4230630A0006323C423F2
:100660000C30A0006323C4230130A0006323C42303
:1006700008008030A00063230830A1002C308400E3
:100680000008A0007023840AA10B402BC030A000FA
:1006900063230830A1000008A0007023840AA10B86
:1006A0004B2B08000D30A0006323C42308000C303E
:1006B000A0006323C42308005008C80080212A0832
:1006C000A00063230800200E0F3920388600861210
:1006D000D52320080F39203886008612D52308003C
:1006E000200E0F39303886008612D52320080F39A6
:1006F000303886008612D52308000630A100831604
:100700009B0183124030840083161C141A08800059
:100710009B0A840A8312A10B842B08000630A100D7
:100720004030840083169B011C1583120008831639
:100730009A0055309D00AA309D009C1483128C1F96
:100740009F2B8C1383169B0A840A8312A10B962B72
:100750000800C530CF00AC2BCF0BAB2B0B1DB32B40
:10076000CC0A0B11B52B0000B52B0000B72B0800ED
:10077000A923A923A923A923A923A923A923A92319
:10078000A923A923C32B08000A30D200B823D20B17
:10079000C62BCA2B08002030D200B823D20BCD2B99
:1007A0000930D200D20BD22B08001430D200000046
:0807B0000000D20BD72B08005A
:02400E00293F48
:0C420000000000000000000001000300AE
:00000001FF
