:100000003328FF3FFF3FFF3FFF00030E8301B9008E
:100010000408B8000A08BA008A017108C200700812
:10002000C10000308B180130F1007108013A031D46
:100030002228A10A0319A20A0319A30A0319A40A70
:100040008B102628A50A0319A60A8C104208F10075
:100050004108F0003A088A0038088400390E83000D
:10006000FF0E7F0E0900203003138316A0002030FE
:10007000A1002030A2002030A3002030A400663070
:10008000A5006D30A6006530A7007430A80065306B
:10009000A9007230AA002030AB002030AC00203024
:1000A000AD002030AE002030AF00B0012030B100F4
:1000B0002030B2007730B3007730B4007730B5002D
:1000C0002E30B6006530B7006530B8006E30B9002C
:1000D0006730BA002E30BB006230BC006930BD0012
:1000E0007A30BE002030BF002030C000C101203077
:1000F000C2002030C3002030C4002030C5002030B2
:10010000C6007630C7003130C8002E30C90030300C
:10011000CA002E30CB003430CC002030CD0020304F
:10012000CE002030CF002030D0002030D100D201CE
:100130006630D3003D30D4002030D5002030D600CA
:100140002030D7002030D8002030D9002030DA000D
:100150002030DB002030DC002030DD002030DE00ED
:100160002030DF002030E000E1013030E2002030BC
:10017000E3004830E4007A30E500E60107308312FE
:100180009F00F9308316920083129001393092005B
:10019000983083168100831212158316860106306B
:1001A0008312BB00D0230C30C0005F240130C0009C
:1001B0005F24B601B70123303702031DE128283040
:1001C00036020318E728B60A0319B70ADB28831694
:1001D000061401308312BB000130BC00A030BD000A
:1001E0001C240230BB000130BC00B130BD001C2417
:1001F0003330FC00FF30FB00FF30FA00FC0B01291C
:100200000829FB0B04290729FA0B04290129FE28D8
:10021000FD30FB00FF30FA00FB0B0F291229FA0B0F
:100220000F290C29B530FA00FA0B1429000002300E
:10023000BB000130BC00C230BD001C243330FC00C8
:10024000FF30FB00FF30FA00FC0B27292E29FB0BA7
:100250002A292D29FA0B2A2927292429FD30FB00D8
:10026000FF30FA00FB0B35293829FA0B35293229E2
:10027000B530FA00FA0B3A2900000230BB00013019
:10028000BC00D330BD001C240230BB000D30BC00CC
:10029000E230BD001C240B1283168C100B178B1739
:1002A0008312B601B701A101A201A301A401A50116
:1002B000A60191018C108B100B1683168C14023042
:1002C00083122602031D662971302502031C5F2953
:1002D0000B1283168C108312B601B7010730370258
:1002E000031D7429D030360203187A29B60A03197F
:1002F000B70A6E294C230230BB000430BC002B30FF
:10030000BD001C2450298329031383127408F802AA
:100310007508031C750FF9027608031C760FFA02A4
:100320007708031C770FFB02F30D0730FC00730DF9
:10033000F80DF90DFA0DFB0D7408731CAD29F802C8
:100340007508031C750FF9027608031C760FFA0274
:100350007708031C770FFB02BA29F8077508031802
:10036000750FF90776080318760FFA077708031850
:10037000770FFB07F30DFC0B9729720DF80DF90DA4
:10038000FA0DFB0D7408731CD329F8027508031CC1
:10039000750FF9027608031C760FFA027708031C22
:1003A000770FFB02E029F80775080318750FF907A6
:1003B00076080318760FFA0777080318770FFB07FC
:1003C000F20D0730FC00720DF80DF90DFA0DFB0D62
:1003D0007408721CF929F8027508031C750FF902DC
:1003E0007608031C760FFA027708031C770FFB02CE
:1003F000062AF80775080318750FF9077608031819
:10040000760FFA0777080318770FFB07F20DFC0B3E
:10041000E329710DF80DF90DFA0DFB0D7408721C2E
:100420001F2AF8027508031C750FF9027608031CD1
:10043000760FFA027708031C770FFB022C2AF807C5
:1004400075080318750FF90776080318760FFA0771
:1004500077080318770FFB07F10D0730FC00710DCB
:10046000F80DF90DFA0DFB0D7408711C452AF80200
:100470007508031C750FF9027608031C760FFA0243
:100480007708031C770FFB02522AF8077508031838
:10049000750FF90776080318760FFA07770803181F
:1004A000770FFB07F10DFC0B2F2A700DF80DF90DDE
:1004B000FA0DFB0D7408711C6B2AF8027508031CF9
:1004C000750FF9027608031C760FFA027708031CF1
:1004D000770FFB02782AF80775080318750FF907DC
:1004E00076080318760FFA0777080318770FFB07CB
:1004F000F00D0730FC00700DF80DF90DFA0DFB0D35
:100500007408701C912AF8027508031C750FF90213
:100510007608031C760FFA027708031C770FFB029C
:100520009E2AF80775080318750FF907760803184F
:10053000760FFA0777080318770FFB07F00DFC0B0F
:100540007B2A7018B12A7408F80775080318750F0C
:10055000F90776080318760FFA0777080318770F5C
:10056000FB07080003138312FC01F71BFC0AFD01C3
:10057000FB01FA01F901F8017308720471047004B7
:100580000319462B73087706A000A01BFD09F71F6F
:10059000D42AF409F509F609F709F40A0319F50A4A
:1005A0000319F60A0319F70AF31FE12AF009F10902
:1005B000F209F309F00A0319F10A0319F20A0319FF
:1005C000F30A73087704A000A01B022B8421FC1BF4
:1005D0001F2BFD1F462BF009F109F209F309F00A60
:1005E0000319F10A0319F20A0319F30AF809F909C0
:1005F000FA09FB09F80A0319F90A0319FA0A031997
:10060000FB0A462BF71F192BF31B132B7308FB0058
:100610007208FA007108F9007008F800F301F2019D
:10062000F101F001E92AF301F201F101F001F00A10
:100630000034F309F209F109F009FC17E62AF80A77
:100640000319F90A0319FA0A0319FB0A7408780254
:10065000031DE92A75087902031DE92A76087A0242
:10066000031DE92A77087B02031DE92AFB01FA0131
:10067000F901F801F00A0319F10A0319F20A031942
:10068000F30AF31FE92AA0012016FF34A0017C1C05
:100690004A2BAE24003F080003138312A901AA01CC
:1006A00080302A06F00080307002031D592B0A307A
:1006B00029020318662B29082B3FF00070088400DC
:1006C00020308000A90A0319AA0A502BB501003076
:1006D000F0002406031D762B70082306031D762BDD
:1006E00070082206031D762B2108003A031D7B2B80
:1006F0003030B400CF2BA901AA012408003C031D0F
:100700008B2B2308003C031D8B2B2208003C031D70
:100710008B2B2108003C0318CF2B2908093CF00043
:100720002A08031C013FF101F10270082B3FBB00B6
:100730000A30F400F501F601F7012108F000220863
:10074000F1002308F2002408F300B2227808F00038
:100750007908F1007A08F2007B08F3003030700766
:10076000F4003B08840074088000A90A0319AA0A4F
:100770000A30F400F501F601F7012108F000220823
:10078000F1002308F2002408F300B2227008A1004F
:100790007108A2007208A3007308A4007D2B080052
:1007A0009D249D249D243B08A7003B0884008417BA
:1007B00080110011001080130013801200128413A6
:1007C0008011001100108013001380120012801697
:1007D0000016801580119D24801580119D248015A0
:1007E00080119D2480160012801580119D248001A7
:1007F00080168015801180018017801580119D243E
:1008000080010016801580118001801580119D24C3
:100810008001801580110016801580119D248001B3
:100820008015801100168016001780178015801122
:100830009D240130A80008002E2C80300313831261
:10084000BB00412CC030BB00412C9430BB00412C7C
:10085000D430BB00412C8030BB00412C03138312E9
:100860003B08013A03191D2C3B08023A0319222CBC
:100870003B08033A0319252C3B08043A0319282C9A
:100880002B2C3C03F0003B08F0077008BB007008FD
:10089000C0005F24A801BE013E083D078400000897
:1008A000F000700803195C2C3E083D078400000826
:1008B000BF00BC24BE0A4C2C0130A8000800031362
:1008C00083122708840040080319662C8011001148
:1008D0008013001380120012C01B8017401B0017EA
:1008E000C01A8016401A001628080319792C001126
:1008F0007A2C00158015C524400803197F2C80111F
:1009000000118013001380120012C01980174019C3
:100910000017C01880164018001628080319922CDA
:100920000011932C00158015C52480112808031987
:100930009B2C9D249C2CCD2408002430031383126F
:10094000FB00FF30FA00FB0BA62CA92CFA0BA62CFF
:10095000A32C9E30FA00FA0BAB2C08000313831271
:10096000FB09FA09F909F809F80A0319F90A031940
:10097000FA0A0319FB0A080003138312A8013F08AF
:10098000C0005F240130A800080001300313831267
:10099000FA00FA0BC92C000008005330031383122D
:1009A000FA00FA0BD12C0800FF3FFF3FFF3FFF3F4B
:02400E00223F4F
:00000001FF
