:020000006D2869
:080008006C2882070834003463
:1000100098349634803486348634073400340F3470
:100020004234403487348734063400340134863413
:10003000A034C034C03405340034003427341034C4
:10004000C234C1340434003400340334E834C334DB
:10005000C33403340034003400346434C434C4344E
:1000600002340034003400340A34C634C534013458
:100070000034003400340134C734C734FF348207FD
:100080000134563446344F342B3449344634023428
:10009000493446342D34563446344F3403345634C0
:1000A00046344F342D3449344634FF34820701340A
:1000B0003A3431343034203402343A343334323444
:1000C000203403343A3436343434203404343A346B
:1000D000313432343834FF34090085018601831607
:1000E000FF308500003086002730810083127B239B
:1000F000BF2316238101B8010B1105198128310B8B
:100100008C288316FF3085008312BF238511831648
:10011000F7308500831296288316FF3085008312FE
:10012000C62385118316F73085008312DB20EF206C
:100130000021051C9D28B3237A28BF23051C9D2878
:100140000830051D0730BC0050234E215A23051CE2
:10015000B128851CAC28A728BF23851CAC286421A6
:10016000A528BF23051CB128BC0BA52855235C215D
:10017000051CC528851CBD28B828BF23851CBD28A3
:10018000B00BC4280330B000B728BF23051CC52816
:100190006021051CD628851CCE28C928BF23851CB4
:1001A000CE28B10BD5280430B100C528BF23051CCB
:1001B000D6288A237A280108B9000B1DE128B80A3D
:1001C0000B11BB01BB038511851501083902031909
:1001D000EA28EC28BB0AE3283B09BA000800051905
:1001E000080003303102031DF82801308D00FE287D
:1001F00004303102031DFF2802308D003B2208002D
:100200003008B00B1129B0008E0138088F00390872
:1002100090003A0891000E30B3002C30B200EF216C
:100220004129B00B2E29B0009201380893003908FB
:1002300094003A0895002C30B2000E30B300043020
:100240008D0042220E30B3001230B2001122160B84
:1002500041298E018F01900191014129B0008E0149
:1002600038088F00390890003A0891000E30B3002A
:100270002C30B2001122160B41298E018F01900102
:1002800091010E30B2002830B30004308D004222BC
:100290004F22BF016B22D222372308002C30B2003C
:1002A0002830B30004308D0042224F220130BF00BD
:1002B0006B22DF2237230800A421EC223723080019
:1002C000CC210123372308002C30B2002830B300A2
:1002D00004308D0042224F223C08083C203E84001E
:1002E000800A0A30000203198001B3222C30B300C7
:1002F0002830B20004308D00422208000301B5000E
:100300000520B700FF3037020319A329370834024C
:1003100003198D293508073E7F293508013E052040
:1003200092003508023E052093003508033E052063
:1003300094003508043E052095003508053E051D4E
:10034000013E0520960008000301B5003F20B700DC
:10035000FF3037020319CB29370830020319B329BC
:100360003508073EA5293508013E3F20A200350883
:10037000023E3F20A3003508033E3F20A40035087D
:10038000043E3F20A5003508053E3F20A600350865
:10039000063E3F20A70008000301B5005620B70025
:1003A000FF3037020319EE29370831020319DB2920
:1003B0003508053ECD293508013E5620A2003508F6
:1003C000023E5620A3003508033E5620A4003508FF
:1003D000043E5620A5002030A600A7000800960184
:1003E00004308D000330B2070330B30733088400B4
:1003F000160880079601031CFF2901309600320879
:1004000084000008B5003308840035088007031C09
:100410000B2A013096008D0B0E2A0800B203B3039D
:10042000F629960104308D000330B2070330B3077C
:10043000330884001608800296010318212A01302F
:100440009600320884000008B5003308840035089F
:10045000800203182D2A013096008D0B302A0800E7
:10046000B203B303182A97011122970A160B342AF4
:10047000EF21970308000310BA0DB90DB80D8D0BCD
:100480003B2A0800320884000008B50033088400C5
:1004900035088000B20AB30A8D0B422A08002808EA
:1004A0008E0029088F002A0890002B089100083040
:1004B000B400203084000E30B3001230B2000408C3
:1004C000B6007E2133223608840017088000840A93
:1004D000B40B5F2A0800051D7B2A2030B2001E30B5
:1004E000B30003308D0042222330B2002230B3002B
:1004F00003308D00882A2030B2001E30B300043053
:100500008D0042222430B2002330B30003308D002E
:1005100042228B2208000A308D001E3084000730F2
:10052000051D06300D0203199B2A0330051D0230FC
:100530000D02031DA02A2030BF08031D2E30AD2A56
:1005400000080319A42AAB2ABF08031DA92A203ECC
:10055000AD2A303EAD2ABF0A303E80008D0BB12A55
:100560000800840A8F2AA801A901AA01AB0108305A
:10057000B400203084002830B3001230B2000408E8
:10058000B6007E21360884000008BD00BD080319AE
:10059000CC2AEF21BD03C62A36088400840AB40B96
:1005A000BF2A0800463098007230990065309A00E2
:1005B00071309B002E309C003A309D00080049307D
:1005C00098004630990073309A0065309B00743073
:1005D0009C003A309D0008004D3098006F30990023
:1005E00064309A0065309B0020309C0073309D0081
:1005F00065309E0074309F003A30A0002030A1008A
:100600000800503098007230990065309A007330BD
:100610009B0063309C0061309D006C309E00653013
:100620009F007230A0002030A10008002330860017
:100630008612BF23233086008612BF232330860014
:100640008612BF23223086008612BF2328308C00FA
:100650006123BF2306308C006123BF230C308C0044
:100660006123BF2301308C006123BF230800803049
:100670008C00612308308D001830840000088C0045
:100680006E23840A8D0B3E2BC0308C006123083012
:100690008D0000088C006E23840A8D0B492B080006
:1006A0000D308C006123BF2308000C308C006123C7
:1006B000BF2308003C08B4007E2116088C0061238B
:1006C00008000C0E0F39203886008612D0230C0843
:1006D0000F39203886008612D02308000C0E0F39FF
:1006E000303886008612D0230C080F393038860047
:1006F0008612D023080006308D0089012C3084003A
:1007000083160814831208088000890A840A8D0B56
:10071000802B080006308D0089012C308400831660
:100720000815831200088800831655308900AA3006
:1007300089008814081E9A2B08128312890A840AD9
:100740008D0B922B83120800C530BB00A72BBB0B6F
:10075000A62B0B1DAE2BB80A0B11B02B0000B02B33
:100760000000B22B0800A423A423A423A423A423C1
:10077000A423A423A423A423A423BE2B08000A306B
:10078000BE00B323BE0BC12BC52B08002030BE001A
:10079000B323BE0BC82B0930BE00BE0BCD2B080007
:0E07A0001430BE0000000000BE0BD22B08007B
:02400E00F93F78
:0C420000000000000000000001000300AE
:00000001FF
