:020000040000FA
:020000006D2869
:080008006C2882070834003463
:1000100098349634803486348634073400340F3470
:100020004234403487348734063400340134863413
:10003000A034C034C03405340034003427341034C4
:10004000C234C1340434003400340334E834C334DB
:10005000C33403340034003400346434C434C4344E
:1000600002340034003400340A34C634C534013458
:100070000034003400340134C734C734FF348207FD
:100080000134563446344F342B3449344634023428
:10009000493446342D34563446344F3403345634C0
:1000A00046344F342D3449344634FF34820701340A
:1000B0003A3431343034203402343A343334323444
:1000C000203403343A3436343434203404343A346B
:1000D000313432343834FF34090085018601831607
:1000E000FF308500003086002730810083127B239B
:1000F000BF2316238101CC010B1105198128450B63
:100100008C288316FF3085008312BF238511831648
:10011000F7308500831296288316FF3085008312FE
:10012000C62385118316F73085008312DB20EF206C
:100130000021051C9D28B3237A28BF23051C9D2878
:100140000830051D0730D00050234E215A23051CCE
:10015000B128851CAC28A728BF23851CAC286421A6
:10016000A528BF23051CB128D00BA52855235C2149
:10017000051CC528851CBD28B828BF23851CBD28A3
:10018000C40BC4280330C400B728BF23051CC528EE
:100190006021051CD628851CCE28C928BF23851CB4
:1001A000CE28C50BD5280430C500C528BF23051CA3
:1001B000D6288A237A280108CD000B1DE128CC0A15
:1001C0000B11CF01CF038511851501084D020319CD
:1001D000EA28EC28CF0AE3284F09CE0008000519C9
:1001E000080003304502031DF8280130A100FE2855
:1001F00004304502031DFF280230A1003B22080005
:100200004408C40B1129C400A2014C08A3004D08E6
:10021000A4004E08A5000E30C7002C30C600EF2108
:100220004129C40B2E29C400A6014C08A7004D0883
:10023000A8004E08A9002C30C6000E30C7000430BC
:10024000A10042220E30C7001230C60011222A0B34
:100250004129A201A301A401A5014129C400A201D1
:100260004C08A3004D08A4004E08A5000E30C7009E
:100270002C30C60011222A0B4129A201A301A4019E
:10028000A5010E30C6002830C7000430A10042226C
:100290004F22D3016B22D222372308002C30C60014
:1002A0002830C7000430A10042224F220130D30081
:1002B0006B22DF2237230800A421EC223723080019
:1002C000CC210123372308002C30C6002830C7007A
:1002D0000430A10042224F225008083C203E8400F6
:1002E000800A0A30000203198001B3222C30C700B3
:1002F0002830C6000430A100422208000301C900D2
:100300000520CB00FF304B020319A3294B084802FC
:1003100003198D294908073E7F294908013E052018
:10032000A6004908023E0520A7004908033E052013
:10033000A8004908043E0520A9004908053E051DFE
:10034000013E0520AA0008000301C9003F20CB00A0
:10035000FF304B020319CB294B0844020319B32980
:100360004908073EA5294908013E3F20B600490833
:10037000023E3F20B7004908033E3F20B80049082D
:10038000043E3F20B9004908053E3F20BA00490815
:10039000063E3F20BB0008000301C9005620CB00E9
:1003A000FF304B020319EE294B0845020319DB29E4
:1003B0004908053ECD294908013E5620B6004908A6
:1003C000023E5620B7004908033E5620B8004908AF
:1003D000043E5620B9002030BA00BB000800AA0134
:1003E0000430A1000330C6070330C7074708840064
:1003F0002A088007AA01031CFF290130AA00460829
:1004000084000008C9004708840049088007031CCD
:100410000B2A0130AA00A10B0E2A0800C603C7034D
:10042000F629AA010430A1000330C6070330C7072C
:10043000470884002A088002AA010318212A0130F3
:10044000AA00460884000008C9004708840049083B
:10045000800203182D2A0130AA00A10B302A0800BF
:10046000C603C703182AAB011122AB0A2A0B342A90
:10047000EF21AB0308000310CE0DCD0DCC0DA10B69
:100480003B2A0800460884000008C9004708840089
:1004900049088000C60AC70AA10B422A08003C0886
:1004A000A2003D08A3003E08A4003F08A5000830B4
:1004B000C800203084000E30C7001230C600040887
:1004C000CA007E2133224A0884002B088000840A57
:1004D000C80B5F2A0800051D7B2A2030C6001E308D
:1004E000C7000330A10042222330C6002230C700DB
:1004F0000330A100882A2030C6001E30C700043017
:10050000A10042222430C6002330C7000330A100DE
:1005100042228B2208000A30A1001E3084000730DE
:10052000051D0630210203199B2A0330051D0230E8
:100530002102031DA02A2030D308031D2E30AD2A2E
:1005400000080319A42AAB2AD308031DA92A203EB8
:10055000AD2A303EAD2AD30A303E8000A10BB12A2D
:100560000800840A8F2ABC01BD01BE01BF0108300A
:10057000C800203084002830C7001230C6000408AC
:10058000CA007E214A0884000008D100D10803195E
:10059000CC2AEF21D103C62A4A088400840AC80B5A
:1005A000BF2A08004630AC007230AD006530AE00A6
:1005B0007130AF002E30B0003A30B1000800493041
:1005C000AC004630AD007330AE006530AF00743023
:1005D000B0003A30B10008004D30AC006F30AD00D3
:1005E0006430AE006530AF002030B0007330B10031
:1005F0006530B2007430B3003A30B4002030B5003A
:1006000008005030AC007230AD006530AE00733081
:10061000AF006330B0006130B1006C30B2006530C3
:10062000B3007230B4002030B500080023308600DB
:100630008612BF23233086008612BF232330860014
:100640008612BF23223086008612BF232830A000E6
:100650006123BF230630A0006123BF230C30A0001C
:100660006123BF230130A0006123BF230800803035
:10067000A00061230830A100183084000008A00009
:100680006E23840AA10B3E2BC030A00061230830EA
:10069000A1000008A0006E23840AA10B492B0800CA
:1006A0000D30A0006123BF2308000C30A00061239F
:1006B000BF2308005008C8007E212A08A00061233B
:1006C0000800200E0F39203886008612D02320081B
:1006D0000F39203886008612D0230800200E0F39EB
:1006E000303886008612D02320080F393038860033
:1006F0008612D02308000630A1009B012C30840014
:1007000083161A1483121A0880009B0A840AA10B0C
:10071000802B08000630A1009B012C30840083163A
:100720001A15831200089A00831655309B00AA30D0
:100730009B009A141A1E9A2B1A1283129B0A840A7F
:10074000A10B922B83120800C530CF00A72BCF0B33
:10075000A62B0B1DAE2BCC0A0B11B02B0000B02B1F
:100760000000B22B0800A423A423A423A423A423C1
:10077000A423A423A423A423A423BE2B08000A306B
:10078000D200B323D20BC12BC52B08002030D200DE
:10079000B323D20BC82B0930D200D20BCD2B0800CB
:0E07A0001430D20000000000D20BD22B080053
:02400E00293F48
:0C420000000000000000000001000300AE
:00000001FF
